{
	"blockchainstuff/Leaderboard.sol": {
		"Leaderboard": {
			"abi": [
				{
					"anonymous": false,
					"inputs": [
						{
							"indexed": true,
							"internalType": "address",
							"name": "player",
							"type": "address"
						},
						{
							"indexed": false,
							"internalType": "bool",
							"name": "win",
							"type": "bool"
						}
					],
					"name": "MatchResult",
					"type": "event"
				},
				{
					"inputs": [],
					"name": "getPlayerCount",
					"outputs": [
						{
							"internalType": "uint256",
							"name": "",
							"type": "uint256"
						}
					],
					"stateMutability": "view",
					"type": "function"
				},
				{
					"inputs": [],
					"name": "getPlayers",
					"outputs": [
						{
							"internalType": "address[]",
							"name": "",
							"type": "address[]"
						}
					],
					"stateMutability": "view",
					"type": "function"
				},
				{
					"inputs": [
						{
							"internalType": "uint256",
							"name": "",
							"type": "uint256"
						}
					],
					"name": "playerAddresses",
					"outputs": [
						{
							"internalType": "address",
							"name": "",
							"type": "address"
						}
					],
					"stateMutability": "view",
					"type": "function"
				},
				{
					"inputs": [],
					"name": "playerCount",
					"outputs": [
						{
							"internalType": "uint256",
							"name": "",
							"type": "uint256"
						}
					],
					"stateMutability": "view",
					"type": "function"
				},
				{
					"inputs": [
						{
							"internalType": "address",
							"name": "",
							"type": "address"
						}
					],
					"name": "players",
					"outputs": [
						{
							"internalType": "uint256",
							"name": "wins",
							"type": "uint256"
						},
						{
							"internalType": "uint256",
							"name": "losses",
							"type": "uint256"
						}
					],
					"stateMutability": "view",
					"type": "function"
				},
				{
					"inputs": [
						{
							"internalType": "address",
							"name": "player",
							"type": "address"
						},
						{
							"internalType": "bool",
							"name": "win",
							"type": "bool"
						}
					],
					"name": "recordMatchResult",
					"outputs": [],
					"stateMutability": "nonpayable",
					"type": "function"
				}
			],
			"devdoc": {
				"kind": "dev",
				"methods": {},
				"version": 1
			},
			"evm": {
				"assembly": "    /* \"blockchainstuff/Leaderboard.sol\":60:1302  contract Leaderboard {... */\n  mstore(0x40, 0x80)\n  callvalue\n  dup1\n  iszero\n  tag_1\n  jumpi\n  0x00\n  dup1\n  revert\ntag_1:\n  pop\n  dataSize(sub_0)\n  dup1\n  dataOffset(sub_0)\n  0x00\n  codecopy\n  0x00\n  return\nstop\n\nsub_0: assembly {\n        /* \"blockchainstuff/Leaderboard.sol\":60:1302  contract Leaderboard {... */\n      mstore(0x40, 0x80)\n      callvalue\n      dup1\n      iszero\n      tag_1\n      jumpi\n      0x00\n      dup1\n      revert\n    tag_1:\n      pop\n      jumpi(tag_2, lt(calldatasize, 0x04))\n      shr(0xe0, calldataload(0x00))\n      dup1\n      0x15c6aee2\n      eq\n      tag_3\n      jumpi\n      dup1\n      0x302bcc57\n      eq\n      tag_4\n      jumpi\n      dup1\n      0x3b79661a\n      eq\n      tag_5\n      jumpi\n      dup1\n      0x8b5b9ccc\n      eq\n      tag_6\n      jumpi\n      dup1\n      0xc2e52206\n      eq\n      tag_7\n      jumpi\n      dup1\n      0xe2eb41ff\n      eq\n      tag_8\n      jumpi\n    tag_2:\n      0x00\n      dup1\n      revert\n        /* \"blockchainstuff/Leaderboard.sol\":214:246  address[] public playerAddresses */\n    tag_3:\n      tag_9\n      0x04\n      dup1\n      calldatasize\n      sub\n      dup2\n      add\n      swap1\n      tag_10\n      swap2\n      swap1\n      tag_11\n      jump\t// in\n    tag_10:\n      tag_12\n      jump\t// in\n    tag_9:\n      mload(0x40)\n      tag_13\n      swap2\n      swap1\n      tag_14\n      jump\t// in\n    tag_13:\n      mload(0x40)\n      dup1\n      swap2\n      sub\n      swap1\n      return\n        /* \"blockchainstuff/Leaderboard.sol\":294:320  uint256 public playerCount */\n    tag_4:\n      tag_15\n      tag_16\n      jump\t// in\n    tag_15:\n      mload(0x40)\n      tag_17\n      swap2\n      swap1\n      tag_18\n      jump\t// in\n    tag_17:\n      mload(0x40)\n      dup1\n      swap2\n      sub\n      swap1\n      return\n        /* \"blockchainstuff/Leaderboard.sol\":483:718  function recordMatchResult(address player, bool win) external {... */\n    tag_5:\n      tag_19\n      0x04\n      dup1\n      calldatasize\n      sub\n      dup2\n      add\n      swap1\n      tag_20\n      swap2\n      swap1\n      tag_21\n      jump\t// in\n    tag_20:\n      tag_22\n      jump\t// in\n    tag_19:\n      stop\n        /* \"blockchainstuff/Leaderboard.sol\":1035:1139  function getPlayers() external view returns (address[] memory) {... */\n    tag_6:\n      tag_23\n      tag_24\n      jump\t// in\n    tag_23:\n      mload(0x40)\n      tag_25\n      swap2\n      swap1\n      tag_26\n      jump\t// in\n    tag_25:\n      mload(0x40)\n      dup1\n      swap2\n      sub\n      swap1\n      return\n        /* \"blockchainstuff/Leaderboard.sol\":1204:1299  function getPlayerCount() external view returns (uint256) {... */\n    tag_7:\n      tag_27\n      tag_28\n      jump\t// in\n    tag_27:\n      mload(0x40)\n      tag_29\n      swap2\n      swap1\n      tag_18\n      jump\t// in\n    tag_29:\n      mload(0x40)\n      dup1\n      swap2\n      sub\n      swap1\n      return\n        /* \"blockchainstuff/Leaderboard.sol\":166:207  mapping(address => Player) public players */\n    tag_8:\n      tag_30\n      0x04\n      dup1\n      calldatasize\n      sub\n      dup2\n      add\n      swap1\n      tag_31\n      swap2\n      swap1\n      tag_32\n      jump\t// in\n    tag_31:\n      tag_33\n      jump\t// in\n    tag_30:\n      mload(0x40)\n      tag_34\n      swap3\n      swap2\n      swap1\n      tag_35\n      jump\t// in\n    tag_34:\n      mload(0x40)\n      dup1\n      swap2\n      sub\n      swap1\n      return\n        /* \"blockchainstuff/Leaderboard.sol\":214:246  address[] public playerAddresses */\n    tag_12:\n      0x01\n      dup2\n      dup2\n      sload\n      dup2\n      lt\n      tag_36\n      jumpi\n      0x00\n      dup1\n      revert\n    tag_36:\n      swap1\n      0x00\n      mstore\n      keccak256(0x00, 0x20)\n      add\n      0x00\n      swap2\n      pop\n      sload\n      swap1\n      0x0100\n      exp\n      swap1\n      div\n      0xffffffffffffffffffffffffffffffffffffffff\n      and\n      dup2\n      jump\t// out\n        /* \"blockchainstuff/Leaderboard.sol\":294:320  uint256 public playerCount */\n    tag_16:\n      sload(0x02)\n      dup2\n      jump\t// out\n        /* \"blockchainstuff/Leaderboard.sol\":483:718  function recordMatchResult(address player, bool win) external {... */\n    tag_22:\n        /* \"blockchainstuff/Leaderboard.sol\":560:563  win */\n      dup1\n        /* \"blockchainstuff/Leaderboard.sol\":556:671  if (win) {... */\n      iszero\n      tag_39\n      jumpi\n        /* \"blockchainstuff/Leaderboard.sol\":580:587  players */\n      0x00\n        /* \"blockchainstuff/Leaderboard.sol\":580:595  players[player] */\n      dup1\n        /* \"blockchainstuff/Leaderboard.sol\":588:594  player */\n      dup4\n        /* \"blockchainstuff/Leaderboard.sol\":580:595  players[player] */\n      0xffffffffffffffffffffffffffffffffffffffff\n      and\n      0xffffffffffffffffffffffffffffffffffffffff\n      and\n      dup2\n      mstore\n      0x20\n      add\n      swap1\n      dup2\n      mstore\n      0x20\n      add\n      0x00\n      keccak256\n        /* \"blockchainstuff/Leaderboard.sol\":580:600  players[player].wins */\n      0x00\n      add\n      0x00\n        /* \"blockchainstuff/Leaderboard.sol\":580:602  players[player].wins++ */\n      dup2\n      sload\n      dup1\n      swap3\n      swap2\n      swap1\n      tag_40\n      swap1\n      tag_41\n      jump\t// in\n    tag_40:\n      swap2\n      swap1\n      pop\n      sstore\n      pop\n        /* \"blockchainstuff/Leaderboard.sol\":556:671  if (win) {... */\n      jump(tag_42)\n    tag_39:\n        /* \"blockchainstuff/Leaderboard.sol\":635:642  players */\n      0x00\n        /* \"blockchainstuff/Leaderboard.sol\":635:650  players[player] */\n      dup1\n        /* \"blockchainstuff/Leaderboard.sol\":643:649  player */\n      dup4\n        /* \"blockchainstuff/Leaderboard.sol\":635:650  players[player] */\n      0xffffffffffffffffffffffffffffffffffffffff\n      and\n      0xffffffffffffffffffffffffffffffffffffffff\n      and\n      dup2\n      mstore\n      0x20\n      add\n      swap1\n      dup2\n      mstore\n      0x20\n      add\n      0x00\n      keccak256\n        /* \"blockchainstuff/Leaderboard.sol\":635:657  players[player].losses */\n      0x01\n      add\n      0x00\n        /* \"blockchainstuff/Leaderboard.sol\":635:659  players[player].losses++ */\n      dup2\n      sload\n      dup1\n      swap3\n      swap2\n      swap1\n      tag_43\n      swap1\n      tag_41\n      jump\t// in\n    tag_43:\n      swap2\n      swap1\n      pop\n      sstore\n      pop\n        /* \"blockchainstuff/Leaderboard.sol\":556:671  if (win) {... */\n    tag_42:\n        /* \"blockchainstuff/Leaderboard.sol\":698:704  player */\n      dup2\n        /* \"blockchainstuff/Leaderboard.sol\":686:710  MatchResult(player, win) */\n      0xffffffffffffffffffffffffffffffffffffffff\n      and\n      0xe288f3da33e64ddee3b364667453b358a49f4b13af9b20ec1836a74ae92c9b2d\n        /* \"blockchainstuff/Leaderboard.sol\":706:709  win */\n      dup3\n        /* \"blockchainstuff/Leaderboard.sol\":686:710  MatchResult(player, win) */\n      mload(0x40)\n      tag_44\n      swap2\n      swap1\n      tag_45\n      jump\t// in\n    tag_44:\n      mload(0x40)\n      dup1\n      swap2\n      sub\n      swap1\n      log2\n        /* \"blockchainstuff/Leaderboard.sol\":483:718  function recordMatchResult(address player, bool win) external {... */\n      pop\n      pop\n      jump\t// out\n        /* \"blockchainstuff/Leaderboard.sol\":1035:1139  function getPlayers() external view returns (address[] memory) {... */\n    tag_24:\n        /* \"blockchainstuff/Leaderboard.sol\":1080:1096  address[] memory */\n      0x60\n        /* \"blockchainstuff/Leaderboard.sol\":1116:1131  playerAddresses */\n      0x01\n        /* \"blockchainstuff/Leaderboard.sol\":1109:1131  return playerAddresses */\n      dup1\n      sload\n      dup1\n      0x20\n      mul\n      0x20\n      add\n      mload(0x40)\n      swap1\n      dup2\n      add\n      0x40\n      mstore\n      dup1\n      swap3\n      swap2\n      swap1\n      dup2\n      dup2\n      mstore\n      0x20\n      add\n      dup3\n      dup1\n      sload\n      dup1\n      iszero\n      tag_47\n      jumpi\n      0x20\n      mul\n      dup3\n      add\n      swap2\n      swap1\n      0x00\n      mstore\n      keccak256(0x00, 0x20)\n      swap1\n    tag_48:\n      dup2\n      0x00\n      swap1\n      sload\n      swap1\n      0x0100\n      exp\n      swap1\n      div\n      0xffffffffffffffffffffffffffffffffffffffff\n      and\n      0xffffffffffffffffffffffffffffffffffffffff\n      and\n      dup2\n      mstore\n      0x20\n      add\n      swap1\n      0x01\n      add\n      swap1\n      dup1\n      dup4\n      gt\n      tag_48\n      jumpi\n    tag_47:\n      pop\n      pop\n      pop\n      pop\n      pop\n      swap1\n      pop\n        /* \"blockchainstuff/Leaderboard.sol\":1035:1139  function getPlayers() external view returns (address[] memory) {... */\n      swap1\n      jump\t// out\n        /* \"blockchainstuff/Leaderboard.sol\":1204:1299  function getPlayerCount() external view returns (uint256) {... */\n    tag_28:\n        /* \"blockchainstuff/Leaderboard.sol\":1253:1260  uint256 */\n      0x00\n        /* \"blockchainstuff/Leaderboard.sol\":1280:1291  playerCount */\n      sload(0x02)\n        /* \"blockchainstuff/Leaderboard.sol\":1273:1291  return playerCount */\n      swap1\n      pop\n        /* \"blockchainstuff/Leaderboard.sol\":1204:1299  function getPlayerCount() external view returns (uint256) {... */\n      swap1\n      jump\t// out\n        /* \"blockchainstuff/Leaderboard.sol\":166:207  mapping(address => Player) public players */\n    tag_33:\n      mstore(0x20, 0x00)\n      dup1\n      0x00\n      mstore\n      keccak256(0x00, 0x40)\n      0x00\n      swap2\n      pop\n      swap1\n      pop\n      dup1\n      0x00\n      add\n      sload\n      swap1\n      dup1\n      0x01\n      add\n      sload\n      swap1\n      pop\n      dup3\n      jump\t// out\n        /* \"#utility.yul\":88:205   */\n    tag_51:\n        /* \"#utility.yul\":197:198   */\n      0x00\n        /* \"#utility.yul\":194:195   */\n      dup1\n        /* \"#utility.yul\":187:199   */\n      revert\n        /* \"#utility.yul\":334:411   */\n    tag_53:\n        /* \"#utility.yul\":371:378   */\n      0x00\n        /* \"#utility.yul\":400:405   */\n      dup2\n        /* \"#utility.yul\":389:405   */\n      swap1\n      pop\n        /* \"#utility.yul\":334:411   */\n      swap2\n      swap1\n      pop\n      jump\t// out\n        /* \"#utility.yul\":417:539   */\n    tag_54:\n        /* \"#utility.yul\":490:514   */\n      tag_80\n        /* \"#utility.yul\":508:513   */\n      dup2\n        /* \"#utility.yul\":490:514   */\n      tag_53\n      jump\t// in\n    tag_80:\n        /* \"#utility.yul\":483:488   */\n      dup2\n        /* \"#utility.yul\":480:515   */\n      eq\n        /* \"#utility.yul\":470:533   */\n      tag_81\n      jumpi\n        /* \"#utility.yul\":529:530   */\n      0x00\n        /* \"#utility.yul\":526:527   */\n      dup1\n        /* \"#utility.yul\":519:531   */\n      revert\n        /* \"#utility.yul\":470:533   */\n    tag_81:\n        /* \"#utility.yul\":417:539   */\n      pop\n      jump\t// out\n        /* \"#utility.yul\":545:684   */\n    tag_55:\n        /* \"#utility.yul\":591:596   */\n      0x00\n        /* \"#utility.yul\":629:635   */\n      dup2\n        /* \"#utility.yul\":616:636   */\n      calldataload\n        /* \"#utility.yul\":607:636   */\n      swap1\n      pop\n        /* \"#utility.yul\":645:678   */\n      tag_83\n        /* \"#utility.yul\":672:677   */\n      dup2\n        /* \"#utility.yul\":645:678   */\n      tag_54\n      jump\t// in\n    tag_83:\n        /* \"#utility.yul\":545:684   */\n      swap3\n      swap2\n      pop\n      pop\n      jump\t// out\n        /* \"#utility.yul\":690:1019   */\n    tag_11:\n        /* \"#utility.yul\":749:755   */\n      0x00\n        /* \"#utility.yul\":798:800   */\n      0x20\n        /* \"#utility.yul\":786:795   */\n      dup3\n        /* \"#utility.yul\":777:784   */\n      dup5\n        /* \"#utility.yul\":773:796   */\n      sub\n        /* \"#utility.yul\":769:801   */\n      slt\n        /* \"#utility.yul\":766:885   */\n      iszero\n      tag_85\n      jumpi\n        /* \"#utility.yul\":804:883   */\n      tag_86\n      tag_51\n      jump\t// in\n    tag_86:\n        /* \"#utility.yul\":766:885   */\n    tag_85:\n        /* \"#utility.yul\":924:925   */\n      0x00\n        /* \"#utility.yul\":949:1002   */\n      tag_87\n        /* \"#utility.yul\":994:1001   */\n      dup5\n        /* \"#utility.yul\":985:991   */\n      dup3\n        /* \"#utility.yul\":974:983   */\n      dup6\n        /* \"#utility.yul\":970:992   */\n      add\n        /* \"#utility.yul\":949:1002   */\n      tag_55\n      jump\t// in\n    tag_87:\n        /* \"#utility.yul\":939:1002   */\n      swap2\n      pop\n        /* \"#utility.yul\":895:1012   */\n      pop\n        /* \"#utility.yul\":690:1019   */\n      swap3\n      swap2\n      pop\n      pop\n      jump\t// out\n        /* \"#utility.yul\":1025:1151   */\n    tag_56:\n        /* \"#utility.yul\":1062:1069   */\n      0x00\n        /* \"#utility.yul\":1102:1144   */\n      0xffffffffffffffffffffffffffffffffffffffff\n        /* \"#utility.yul\":1095:1100   */\n      dup3\n        /* \"#utility.yul\":1091:1145   */\n      and\n        /* \"#utility.yul\":1080:1145   */\n      swap1\n      pop\n        /* \"#utility.yul\":1025:1151   */\n      swap2\n      swap1\n      pop\n      jump\t// out\n        /* \"#utility.yul\":1157:1253   */\n    tag_57:\n        /* \"#utility.yul\":1194:1201   */\n      0x00\n        /* \"#utility.yul\":1223:1247   */\n      tag_90\n        /* \"#utility.yul\":1241:1246   */\n      dup3\n        /* \"#utility.yul\":1223:1247   */\n      tag_56\n      jump\t// in\n    tag_90:\n        /* \"#utility.yul\":1212:1247   */\n      swap1\n      pop\n        /* \"#utility.yul\":1157:1253   */\n      swap2\n      swap1\n      pop\n      jump\t// out\n        /* \"#utility.yul\":1259:1377   */\n    tag_58:\n        /* \"#utility.yul\":1346:1370   */\n      tag_92\n        /* \"#utility.yul\":1364:1369   */\n      dup2\n        /* \"#utility.yul\":1346:1370   */\n      tag_57\n      jump\t// in\n    tag_92:\n        /* \"#utility.yul\":1341:1344   */\n      dup3\n        /* \"#utility.yul\":1334:1371   */\n      mstore\n        /* \"#utility.yul\":1259:1377   */\n      pop\n      pop\n      jump\t// out\n        /* \"#utility.yul\":1383:1605   */\n    tag_14:\n        /* \"#utility.yul\":1476:1480   */\n      0x00\n        /* \"#utility.yul\":1514:1516   */\n      0x20\n        /* \"#utility.yul\":1503:1512   */\n      dup3\n        /* \"#utility.yul\":1499:1517   */\n      add\n        /* \"#utility.yul\":1491:1517   */\n      swap1\n      pop\n        /* \"#utility.yul\":1527:1598   */\n      tag_94\n        /* \"#utility.yul\":1595:1596   */\n      0x00\n        /* \"#utility.yul\":1584:1593   */\n      dup4\n        /* \"#utility.yul\":1580:1597   */\n      add\n        /* \"#utility.yul\":1571:1577   */\n      dup5\n        /* \"#utility.yul\":1527:1598   */\n      tag_58\n      jump\t// in\n    tag_94:\n        /* \"#utility.yul\":1383:1605   */\n      swap3\n      swap2\n      pop\n      pop\n      jump\t// out\n        /* \"#utility.yul\":1611:1729   */\n    tag_59:\n        /* \"#utility.yul\":1698:1722   */\n      tag_96\n        /* \"#utility.yul\":1716:1721   */\n      dup2\n        /* \"#utility.yul\":1698:1722   */\n      tag_53\n      jump\t// in\n    tag_96:\n        /* \"#utility.yul\":1693:1696   */\n      dup3\n        /* \"#utility.yul\":1686:1723   */\n      mstore\n        /* \"#utility.yul\":1611:1729   */\n      pop\n      pop\n      jump\t// out\n        /* \"#utility.yul\":1735:1957   */\n    tag_18:\n        /* \"#utility.yul\":1828:1832   */\n      0x00\n        /* \"#utility.yul\":1866:1868   */\n      0x20\n        /* \"#utility.yul\":1855:1864   */\n      dup3\n        /* \"#utility.yul\":1851:1869   */\n      add\n        /* \"#utility.yul\":1843:1869   */\n      swap1\n      pop\n        /* \"#utility.yul\":1879:1950   */\n      tag_98\n        /* \"#utility.yul\":1947:1948   */\n      0x00\n        /* \"#utility.yul\":1936:1945   */\n      dup4\n        /* \"#utility.yul\":1932:1949   */\n      add\n        /* \"#utility.yul\":1923:1929   */\n      dup5\n        /* \"#utility.yul\":1879:1950   */\n      tag_59\n      jump\t// in\n    tag_98:\n        /* \"#utility.yul\":1735:1957   */\n      swap3\n      swap2\n      pop\n      pop\n      jump\t// out\n        /* \"#utility.yul\":1963:2085   */\n    tag_60:\n        /* \"#utility.yul\":2036:2060   */\n      tag_100\n        /* \"#utility.yul\":2054:2059   */\n      dup2\n        /* \"#utility.yul\":2036:2060   */\n      tag_57\n      jump\t// in\n    tag_100:\n        /* \"#utility.yul\":2029:2034   */\n      dup2\n        /* \"#utility.yul\":2026:2061   */\n      eq\n        /* \"#utility.yul\":2016:2079   */\n      tag_101\n      jumpi\n        /* \"#utility.yul\":2075:2076   */\n      0x00\n        /* \"#utility.yul\":2072:2073   */\n      dup1\n        /* \"#utility.yul\":2065:2077   */\n      revert\n        /* \"#utility.yul\":2016:2079   */\n    tag_101:\n        /* \"#utility.yul\":1963:2085   */\n      pop\n      jump\t// out\n        /* \"#utility.yul\":2091:2230   */\n    tag_61:\n        /* \"#utility.yul\":2137:2142   */\n      0x00\n        /* \"#utility.yul\":2175:2181   */\n      dup2\n        /* \"#utility.yul\":2162:2182   */\n      calldataload\n        /* \"#utility.yul\":2153:2182   */\n      swap1\n      pop\n        /* \"#utility.yul\":2191:2224   */\n      tag_103\n        /* \"#utility.yul\":2218:2223   */\n      dup2\n        /* \"#utility.yul\":2191:2224   */\n      tag_60\n      jump\t// in\n    tag_103:\n        /* \"#utility.yul\":2091:2230   */\n      swap3\n      swap2\n      pop\n      pop\n      jump\t// out\n        /* \"#utility.yul\":2236:2326   */\n    tag_62:\n        /* \"#utility.yul\":2270:2277   */\n      0x00\n        /* \"#utility.yul\":2313:2318   */\n      dup2\n        /* \"#utility.yul\":2306:2319   */\n      iszero\n        /* \"#utility.yul\":2299:2320   */\n      iszero\n        /* \"#utility.yul\":2288:2320   */\n      swap1\n      pop\n        /* \"#utility.yul\":2236:2326   */\n      swap2\n      swap1\n      pop\n      jump\t// out\n        /* \"#utility.yul\":2332:2448   */\n    tag_63:\n        /* \"#utility.yul\":2402:2423   */\n      tag_106\n        /* \"#utility.yul\":2417:2422   */\n      dup2\n        /* \"#utility.yul\":2402:2423   */\n      tag_62\n      jump\t// in\n    tag_106:\n        /* \"#utility.yul\":2395:2400   */\n      dup2\n        /* \"#utility.yul\":2392:2424   */\n      eq\n        /* \"#utility.yul\":2382:2442   */\n      tag_107\n      jumpi\n        /* \"#utility.yul\":2438:2439   */\n      0x00\n        /* \"#utility.yul\":2435:2436   */\n      dup1\n        /* \"#utility.yul\":2428:2440   */\n      revert\n        /* \"#utility.yul\":2382:2442   */\n    tag_107:\n        /* \"#utility.yul\":2332:2448   */\n      pop\n      jump\t// out\n        /* \"#utility.yul\":2454:2587   */\n    tag_64:\n        /* \"#utility.yul\":2497:2502   */\n      0x00\n        /* \"#utility.yul\":2535:2541   */\n      dup2\n        /* \"#utility.yul\":2522:2542   */\n      calldataload\n        /* \"#utility.yul\":2513:2542   */\n      swap1\n      pop\n        /* \"#utility.yul\":2551:2581   */\n      tag_109\n        /* \"#utility.yul\":2575:2580   */\n      dup2\n        /* \"#utility.yul\":2551:2581   */\n      tag_63\n      jump\t// in\n    tag_109:\n        /* \"#utility.yul\":2454:2587   */\n      swap3\n      swap2\n      pop\n      pop\n      jump\t// out\n        /* \"#utility.yul\":2593:3061   */\n    tag_21:\n        /* \"#utility.yul\":2658:2664   */\n      0x00\n        /* \"#utility.yul\":2666:2672   */\n      dup1\n        /* \"#utility.yul\":2715:2717   */\n      0x40\n        /* \"#utility.yul\":2703:2712   */\n      dup4\n        /* \"#utility.yul\":2694:2701   */\n      dup6\n        /* \"#utility.yul\":2690:2713   */\n      sub\n        /* \"#utility.yul\":2686:2718   */\n      slt\n        /* \"#utility.yul\":2683:2802   */\n      iszero\n      tag_111\n      jumpi\n        /* \"#utility.yul\":2721:2800   */\n      tag_112\n      tag_51\n      jump\t// in\n    tag_112:\n        /* \"#utility.yul\":2683:2802   */\n    tag_111:\n        /* \"#utility.yul\":2841:2842   */\n      0x00\n        /* \"#utility.yul\":2866:2919   */\n      tag_113\n        /* \"#utility.yul\":2911:2918   */\n      dup6\n        /* \"#utility.yul\":2902:2908   */\n      dup3\n        /* \"#utility.yul\":2891:2900   */\n      dup7\n        /* \"#utility.yul\":2887:2909   */\n      add\n        /* \"#utility.yul\":2866:2919   */\n      tag_61\n      jump\t// in\n    tag_113:\n        /* \"#utility.yul\":2856:2919   */\n      swap3\n      pop\n        /* \"#utility.yul\":2812:2929   */\n      pop\n        /* \"#utility.yul\":2968:2970   */\n      0x20\n        /* \"#utility.yul\":2994:3044   */\n      tag_114\n        /* \"#utility.yul\":3036:3043   */\n      dup6\n        /* \"#utility.yul\":3027:3033   */\n      dup3\n        /* \"#utility.yul\":3016:3025   */\n      dup7\n        /* \"#utility.yul\":3012:3034   */\n      add\n        /* \"#utility.yul\":2994:3044   */\n      tag_64\n      jump\t// in\n    tag_114:\n        /* \"#utility.yul\":2984:3044   */\n      swap2\n      pop\n        /* \"#utility.yul\":2939:3054   */\n      pop\n        /* \"#utility.yul\":2593:3061   */\n      swap3\n      pop\n      swap3\n      swap1\n      pop\n      jump\t// out\n        /* \"#utility.yul\":3067:3181   */\n    tag_65:\n        /* \"#utility.yul\":3134:3140   */\n      0x00\n        /* \"#utility.yul\":3168:3173   */\n      dup2\n        /* \"#utility.yul\":3162:3174   */\n      mload\n        /* \"#utility.yul\":3152:3174   */\n      swap1\n      pop\n        /* \"#utility.yul\":3067:3181   */\n      swap2\n      swap1\n      pop\n      jump\t// out\n        /* \"#utility.yul\":3187:3371   */\n    tag_66:\n        /* \"#utility.yul\":3286:3297   */\n      0x00\n        /* \"#utility.yul\":3320:3326   */\n      dup3\n        /* \"#utility.yul\":3315:3318   */\n      dup3\n        /* \"#utility.yul\":3308:3327   */\n      mstore\n        /* \"#utility.yul\":3360:3364   */\n      0x20\n        /* \"#utility.yul\":3355:3358   */\n      dup3\n        /* \"#utility.yul\":3351:3365   */\n      add\n        /* \"#utility.yul\":3336:3365   */\n      swap1\n      pop\n        /* \"#utility.yul\":3187:3371   */\n      swap3\n      swap2\n      pop\n      pop\n      jump\t// out\n        /* \"#utility.yul\":3377:3509   */\n    tag_67:\n        /* \"#utility.yul\":3444:3448   */\n      0x00\n        /* \"#utility.yul\":3467:3470   */\n      dup2\n        /* \"#utility.yul\":3459:3470   */\n      swap1\n      pop\n        /* \"#utility.yul\":3497:3501   */\n      0x20\n        /* \"#utility.yul\":3492:3495   */\n      dup3\n        /* \"#utility.yul\":3488:3502   */\n      add\n        /* \"#utility.yul\":3480:3502   */\n      swap1\n      pop\n        /* \"#utility.yul\":3377:3509   */\n      swap2\n      swap1\n      pop\n      jump\t// out\n        /* \"#utility.yul\":3515:3623   */\n    tag_68:\n        /* \"#utility.yul\":3592:3616   */\n      tag_119\n        /* \"#utility.yul\":3610:3615   */\n      dup2\n        /* \"#utility.yul\":3592:3616   */\n      tag_57\n      jump\t// in\n    tag_119:\n        /* \"#utility.yul\":3587:3590   */\n      dup3\n        /* \"#utility.yul\":3580:3617   */\n      mstore\n        /* \"#utility.yul\":3515:3623   */\n      pop\n      pop\n      jump\t// out\n        /* \"#utility.yul\":3629:3808   */\n    tag_69:\n        /* \"#utility.yul\":3698:3708   */\n      0x00\n        /* \"#utility.yul\":3719:3765   */\n      tag_121\n        /* \"#utility.yul\":3761:3764   */\n      dup4\n        /* \"#utility.yul\":3753:3759   */\n      dup4\n        /* \"#utility.yul\":3719:3765   */\n      tag_68\n      jump\t// in\n    tag_121:\n        /* \"#utility.yul\":3797:3801   */\n      0x20\n        /* \"#utility.yul\":3792:3795   */\n      dup4\n        /* \"#utility.yul\":3788:3802   */\n      add\n        /* \"#utility.yul\":3774:3802   */\n      swap1\n      pop\n        /* \"#utility.yul\":3629:3808   */\n      swap3\n      swap2\n      pop\n      pop\n      jump\t// out\n        /* \"#utility.yul\":3814:3927   */\n    tag_70:\n        /* \"#utility.yul\":3884:3888   */\n      0x00\n        /* \"#utility.yul\":3916:3920   */\n      0x20\n        /* \"#utility.yul\":3911:3914   */\n      dup3\n        /* \"#utility.yul\":3907:3921   */\n      add\n        /* \"#utility.yul\":3899:3921   */\n      swap1\n      pop\n        /* \"#utility.yul\":3814:3927   */\n      swap2\n      swap1\n      pop\n      jump\t// out\n        /* \"#utility.yul\":3963:4695   */\n    tag_71:\n        /* \"#utility.yul\":4082:4085   */\n      0x00\n        /* \"#utility.yul\":4111:4165   */\n      tag_124\n        /* \"#utility.yul\":4159:4164   */\n      dup3\n        /* \"#utility.yul\":4111:4165   */\n      tag_65\n      jump\t// in\n    tag_124:\n        /* \"#utility.yul\":4181:4267   */\n      tag_125\n        /* \"#utility.yul\":4260:4266   */\n      dup2\n        /* \"#utility.yul\":4255:4258   */\n      dup6\n        /* \"#utility.yul\":4181:4267   */\n      tag_66\n      jump\t// in\n    tag_125:\n        /* \"#utility.yul\":4174:4267   */\n      swap4\n      pop\n        /* \"#utility.yul\":4291:4347   */\n      tag_126\n        /* \"#utility.yul\":4341:4346   */\n      dup4\n        /* \"#utility.yul\":4291:4347   */\n      tag_67\n      jump\t// in\n    tag_126:\n        /* \"#utility.yul\":4370:4377   */\n      dup1\n        /* \"#utility.yul\":4401:4402   */\n      0x00\n        /* \"#utility.yul\":4386:4670   */\n    tag_127:\n        /* \"#utility.yul\":4411:4417   */\n      dup4\n        /* \"#utility.yul\":4408:4409   */\n      dup2\n        /* \"#utility.yul\":4405:4418   */\n      lt\n        /* \"#utility.yul\":4386:4670   */\n      iszero\n      tag_129\n      jumpi\n        /* \"#utility.yul\":4487:4493   */\n      dup2\n        /* \"#utility.yul\":4481:4494   */\n      mload\n        /* \"#utility.yul\":4514:4577   */\n      tag_130\n        /* \"#utility.yul\":4573:4576   */\n      dup9\n        /* \"#utility.yul\":4558:4571   */\n      dup3\n        /* \"#utility.yul\":4514:4577   */\n      tag_69\n      jump\t// in\n    tag_130:\n        /* \"#utility.yul\":4507:4577   */\n      swap8\n      pop\n        /* \"#utility.yul\":4600:4660   */\n      tag_131\n        /* \"#utility.yul\":4653:4659   */\n      dup4\n        /* \"#utility.yul\":4600:4660   */\n      tag_70\n      jump\t// in\n    tag_131:\n        /* \"#utility.yul\":4590:4660   */\n      swap3\n      pop\n        /* \"#utility.yul\":4446:4670   */\n      pop\n        /* \"#utility.yul\":4433:4434   */\n      0x01\n        /* \"#utility.yul\":4430:4431   */\n      dup2\n        /* \"#utility.yul\":4426:4435   */\n      add\n        /* \"#utility.yul\":4421:4435   */\n      swap1\n      pop\n        /* \"#utility.yul\":4386:4670   */\n      jump(tag_127)\n    tag_129:\n        /* \"#utility.yul\":4390:4404   */\n      pop\n        /* \"#utility.yul\":4686:4689   */\n      dup6\n        /* \"#utility.yul\":4679:4689   */\n      swap4\n      pop\n        /* \"#utility.yul\":4087:4695   */\n      pop\n      pop\n      pop\n        /* \"#utility.yul\":3963:4695   */\n      swap3\n      swap2\n      pop\n      pop\n      jump\t// out\n        /* \"#utility.yul\":4701:5074   */\n    tag_26:\n        /* \"#utility.yul\":4844:4848   */\n      0x00\n        /* \"#utility.yul\":4882:4884   */\n      0x20\n        /* \"#utility.yul\":4871:4880   */\n      dup3\n        /* \"#utility.yul\":4867:4885   */\n      add\n        /* \"#utility.yul\":4859:4885   */\n      swap1\n      pop\n        /* \"#utility.yul\":4931:4940   */\n      dup2\n        /* \"#utility.yul\":4925:4929   */\n      dup2\n        /* \"#utility.yul\":4921:4941   */\n      sub\n        /* \"#utility.yul\":4917:4918   */\n      0x00\n        /* \"#utility.yul\":4906:4915   */\n      dup4\n        /* \"#utility.yul\":4902:4919   */\n      add\n        /* \"#utility.yul\":4895:4942   */\n      mstore\n        /* \"#utility.yul\":4959:5067   */\n      tag_133\n        /* \"#utility.yul\":5062:5066   */\n      dup2\n        /* \"#utility.yul\":5053:5059   */\n      dup5\n        /* \"#utility.yul\":4959:5067   */\n      tag_71\n      jump\t// in\n    tag_133:\n        /* \"#utility.yul\":4951:5067   */\n      swap1\n      pop\n        /* \"#utility.yul\":4701:5074   */\n      swap3\n      swap2\n      pop\n      pop\n      jump\t// out\n        /* \"#utility.yul\":5080:5409   */\n    tag_32:\n        /* \"#utility.yul\":5139:5145   */\n      0x00\n        /* \"#utility.yul\":5188:5190   */\n      0x20\n        /* \"#utility.yul\":5176:5185   */\n      dup3\n        /* \"#utility.yul\":5167:5174   */\n      dup5\n        /* \"#utility.yul\":5163:5186   */\n      sub\n        /* \"#utility.yul\":5159:5191   */\n      slt\n        /* \"#utility.yul\":5156:5275   */\n      iszero\n      tag_135\n      jumpi\n        /* \"#utility.yul\":5194:5273   */\n      tag_136\n      tag_51\n      jump\t// in\n    tag_136:\n        /* \"#utility.yul\":5156:5275   */\n    tag_135:\n        /* \"#utility.yul\":5314:5315   */\n      0x00\n        /* \"#utility.yul\":5339:5392   */\n      tag_137\n        /* \"#utility.yul\":5384:5391   */\n      dup5\n        /* \"#utility.yul\":5375:5381   */\n      dup3\n        /* \"#utility.yul\":5364:5373   */\n      dup6\n        /* \"#utility.yul\":5360:5382   */\n      add\n        /* \"#utility.yul\":5339:5392   */\n      tag_61\n      jump\t// in\n    tag_137:\n        /* \"#utility.yul\":5329:5392   */\n      swap2\n      pop\n        /* \"#utility.yul\":5285:5402   */\n      pop\n        /* \"#utility.yul\":5080:5409   */\n      swap3\n      swap2\n      pop\n      pop\n      jump\t// out\n        /* \"#utility.yul\":5415:5747   */\n    tag_35:\n        /* \"#utility.yul\":5536:5540   */\n      0x00\n        /* \"#utility.yul\":5574:5576   */\n      0x40\n        /* \"#utility.yul\":5563:5572   */\n      dup3\n        /* \"#utility.yul\":5559:5577   */\n      add\n        /* \"#utility.yul\":5551:5577   */\n      swap1\n      pop\n        /* \"#utility.yul\":5587:5658   */\n      tag_139\n        /* \"#utility.yul\":5655:5656   */\n      0x00\n        /* \"#utility.yul\":5644:5653   */\n      dup4\n        /* \"#utility.yul\":5640:5657   */\n      add\n        /* \"#utility.yul\":5631:5637   */\n      dup6\n        /* \"#utility.yul\":5587:5658   */\n      tag_59\n      jump\t// in\n    tag_139:\n        /* \"#utility.yul\":5668:5740   */\n      tag_140\n        /* \"#utility.yul\":5736:5738   */\n      0x20\n        /* \"#utility.yul\":5725:5734   */\n      dup4\n        /* \"#utility.yul\":5721:5739   */\n      add\n        /* \"#utility.yul\":5712:5718   */\n      dup5\n        /* \"#utility.yul\":5668:5740   */\n      tag_59\n      jump\t// in\n    tag_140:\n        /* \"#utility.yul\":5415:5747   */\n      swap4\n      swap3\n      pop\n      pop\n      pop\n      jump\t// out\n        /* \"#utility.yul\":5753:5933   */\n    tag_72:\n        /* \"#utility.yul\":5801:5878   */\n      0x4e487b7100000000000000000000000000000000000000000000000000000000\n        /* \"#utility.yul\":5798:5799   */\n      0x00\n        /* \"#utility.yul\":5791:5879   */\n      mstore\n        /* \"#utility.yul\":5898:5902   */\n      0x11\n        /* \"#utility.yul\":5895:5896   */\n      0x04\n        /* \"#utility.yul\":5888:5903   */\n      mstore\n        /* \"#utility.yul\":5922:5926   */\n      0x24\n        /* \"#utility.yul\":5919:5920   */\n      0x00\n        /* \"#utility.yul\":5912:5927   */\n      revert\n        /* \"#utility.yul\":5939:6172   */\n    tag_41:\n        /* \"#utility.yul\":5978:5981   */\n      0x00\n        /* \"#utility.yul\":6001:6025   */\n      tag_143\n        /* \"#utility.yul\":6019:6024   */\n      dup3\n        /* \"#utility.yul\":6001:6025   */\n      tag_53\n      jump\t// in\n    tag_143:\n        /* \"#utility.yul\":5992:6025   */\n      swap2\n      pop\n        /* \"#utility.yul\":6047:6113   */\n      0xffffffffffffffffffffffffffffffffffffffffffffffffffffffffffffffff\n        /* \"#utility.yul\":6040:6045   */\n      dup3\n        /* \"#utility.yul\":6037:6114   */\n      sub\n        /* \"#utility.yul\":6034:6137   */\n      tag_144\n      jumpi\n        /* \"#utility.yul\":6117:6135   */\n      tag_145\n      tag_72\n      jump\t// in\n    tag_145:\n        /* \"#utility.yul\":6034:6137   */\n    tag_144:\n        /* \"#utility.yul\":6164:6165   */\n      0x01\n        /* \"#utility.yul\":6157:6162   */\n      dup3\n        /* \"#utility.yul\":6153:6166   */\n      add\n        /* \"#utility.yul\":6146:6166   */\n      swap1\n      pop\n        /* \"#utility.yul\":5939:6172   */\n      swap2\n      swap1\n      pop\n      jump\t// out\n        /* \"#utility.yul\":6178:6287   */\n    tag_73:\n        /* \"#utility.yul\":6259:6280   */\n      tag_147\n        /* \"#utility.yul\":6274:6279   */\n      dup2\n        /* \"#utility.yul\":6259:6280   */\n      tag_62\n      jump\t// in\n    tag_147:\n        /* \"#utility.yul\":6254:6257   */\n      dup3\n        /* \"#utility.yul\":6247:6281   */\n      mstore\n        /* \"#utility.yul\":6178:6287   */\n      pop\n      pop\n      jump\t// out\n        /* \"#utility.yul\":6293:6503   */\n    tag_45:\n        /* \"#utility.yul\":6380:6384   */\n      0x00\n        /* \"#utility.yul\":6418:6420   */\n      0x20\n        /* \"#utility.yul\":6407:6416   */\n      dup3\n        /* \"#utility.yul\":6403:6421   */\n      add\n        /* \"#utility.yul\":6395:6421   */\n      swap1\n      pop\n        /* \"#utility.yul\":6431:6496   */\n      tag_149\n        /* \"#utility.yul\":6493:6494   */\n      0x00\n        /* \"#utility.yul\":6482:6491   */\n      dup4\n        /* \"#utility.yul\":6478:6495   */\n      add\n        /* \"#utility.yul\":6469:6475   */\n      dup5\n        /* \"#utility.yul\":6431:6496   */\n      tag_73\n      jump\t// in\n    tag_149:\n        /* \"#utility.yul\":6293:6503   */\n      swap3\n      swap2\n      pop\n      pop\n      jump\t// out\n\n    auxdata: 0xa2646970667358221220944535fbee27755737181f61b74c58268b4b520c8f74b7ffbe83f128af6eb33a64736f6c63430008190033\n}\n",
				"bytecode": {
					"linkReferences": {},
					"object": "6080604052348015600e575f80fd5b506106ae8061001c5f395ff3fe608060405234801561000f575f80fd5b5060043610610060575f3560e01c806315c6aee214610064578063302bcc57146100945780633b79661a146100b25780638b5b9ccc146100ce578063c2e52206146100ec578063e2eb41ff1461010a575b5f80fd5b61007e6004803603810190610079919061036b565b61013b565b60405161008b91906103d5565b60405180910390f35b61009c610176565b6040516100a991906103fd565b60405180910390f35b6100cc60048036038101906100c79190610475565b61017c565b005b6100d6610281565b6040516100e3919061056a565b60405180910390f35b6100f461030c565b60405161010191906103fd565b60405180910390f35b610124600480360381019061011f919061058a565b610315565b6040516101329291906105b5565b60405180910390f35b6001818154811061014a575f80fd5b905f5260205f20015f915054906101000a900473ffffffffffffffffffffffffffffffffffffffff1681565b60025481565b80156101da575f808373ffffffffffffffffffffffffffffffffffffffff1673ffffffffffffffffffffffffffffffffffffffff1681526020019081526020015f205f015f8154809291906101d090610609565b919050555061022f565b5f808373ffffffffffffffffffffffffffffffffffffffff1673ffffffffffffffffffffffffffffffffffffffff1681526020019081526020015f206001015f81548092919061022990610609565b91905055505b8173ffffffffffffffffffffffffffffffffffffffff167fe288f3da33e64ddee3b364667453b358a49f4b13af9b20ec1836a74ae92c9b2d82604051610275919061065f565b60405180910390a25050565b6060600180548060200260200160405190810160405280929190818152602001828054801561030257602002820191905f5260205f20905b815f9054906101000a900473ffffffffffffffffffffffffffffffffffffffff1673ffffffffffffffffffffffffffffffffffffffff16815260200190600101908083116102b9575b5050505050905090565b5f600254905090565b5f602052805f5260405f205f91509050805f0154908060010154905082565b5f80fd5b5f819050919050565b61034a81610338565b8114610354575f80fd5b50565b5f8135905061036581610341565b92915050565b5f602082840312156103805761037f610334565b5b5f61038d84828501610357565b91505092915050565b5f73ffffffffffffffffffffffffffffffffffffffff82169050919050565b5f6103bf82610396565b9050919050565b6103cf816103b5565b82525050565b5f6020820190506103e85f8301846103c6565b92915050565b6103f781610338565b82525050565b5f6020820190506104105f8301846103ee565b92915050565b61041f816103b5565b8114610429575f80fd5b50565b5f8135905061043a81610416565b92915050565b5f8115159050919050565b61045481610440565b811461045e575f80fd5b50565b5f8135905061046f8161044b565b92915050565b5f806040838503121561048b5761048a610334565b5b5f6104988582860161042c565b92505060206104a985828601610461565b9150509250929050565b5f81519050919050565b5f82825260208201905092915050565b5f819050602082019050919050565b6104e5816103b5565b82525050565b5f6104f683836104dc565b60208301905092915050565b5f602082019050919050565b5f610518826104b3565b61052281856104bd565b935061052d836104cd565b805f5b8381101561055d57815161054488826104eb565b975061054f83610502565b925050600181019050610530565b5085935050505092915050565b5f6020820190508181035f830152610582818461050e565b905092915050565b5f6020828403121561059f5761059e610334565b5b5f6105ac8482850161042c565b91505092915050565b5f6040820190506105c85f8301856103ee565b6105d560208301846103ee565b9392505050565b7f4e487b71000000000000000000000000000000000000000000000000000000005f52601160045260245ffd5b5f61061382610338565b91507fffffffffffffffffffffffffffffffffffffffffffffffffffffffffffffffff8203610645576106446105dc565b5b600182019050919050565b61065981610440565b82525050565b5f6020820190506106725f830184610650565b9291505056fea2646970667358221220944535fbee27755737181f61b74c58268b4b520c8f74b7ffbe83f128af6eb33a64736f6c63430008190033",
					"opcodes": "PUSH1 0x80 PUSH1 0x40 MSTORE CALLVALUE DUP1 ISZERO PUSH1 0xE JUMPI PUSH0 DUP1 REVERT JUMPDEST POP PUSH2 0x6AE DUP1 PUSH2 0x1C PUSH0 CODECOPY PUSH0 RETURN INVALID PUSH1 0x80 PUSH1 0x40 MSTORE CALLVALUE DUP1 ISZERO PUSH2 0xF JUMPI PUSH0 DUP1 REVERT JUMPDEST POP PUSH1 0x4 CALLDATASIZE LT PUSH2 0x60 JUMPI PUSH0 CALLDATALOAD PUSH1 0xE0 SHR DUP1 PUSH4 0x15C6AEE2 EQ PUSH2 0x64 JUMPI DUP1 PUSH4 0x302BCC57 EQ PUSH2 0x94 JUMPI DUP1 PUSH4 0x3B79661A EQ PUSH2 0xB2 JUMPI DUP1 PUSH4 0x8B5B9CCC EQ PUSH2 0xCE JUMPI DUP1 PUSH4 0xC2E52206 EQ PUSH2 0xEC JUMPI DUP1 PUSH4 0xE2EB41FF EQ PUSH2 0x10A JUMPI JUMPDEST PUSH0 DUP1 REVERT JUMPDEST PUSH2 0x7E PUSH1 0x4 DUP1 CALLDATASIZE SUB DUP2 ADD SWAP1 PUSH2 0x79 SWAP2 SWAP1 PUSH2 0x36B JUMP JUMPDEST PUSH2 0x13B JUMP JUMPDEST PUSH1 0x40 MLOAD PUSH2 0x8B SWAP2 SWAP1 PUSH2 0x3D5 JUMP JUMPDEST PUSH1 0x40 MLOAD DUP1 SWAP2 SUB SWAP1 RETURN JUMPDEST PUSH2 0x9C PUSH2 0x176 JUMP JUMPDEST PUSH1 0x40 MLOAD PUSH2 0xA9 SWAP2 SWAP1 PUSH2 0x3FD JUMP JUMPDEST PUSH1 0x40 MLOAD DUP1 SWAP2 SUB SWAP1 RETURN JUMPDEST PUSH2 0xCC PUSH1 0x4 DUP1 CALLDATASIZE SUB DUP2 ADD SWAP1 PUSH2 0xC7 SWAP2 SWAP1 PUSH2 0x475 JUMP JUMPDEST PUSH2 0x17C JUMP JUMPDEST STOP JUMPDEST PUSH2 0xD6 PUSH2 0x281 JUMP JUMPDEST PUSH1 0x40 MLOAD PUSH2 0xE3 SWAP2 SWAP1 PUSH2 0x56A JUMP JUMPDEST PUSH1 0x40 MLOAD DUP1 SWAP2 SUB SWAP1 RETURN JUMPDEST PUSH2 0xF4 PUSH2 0x30C JUMP JUMPDEST PUSH1 0x40 MLOAD PUSH2 0x101 SWAP2 SWAP1 PUSH2 0x3FD JUMP JUMPDEST PUSH1 0x40 MLOAD DUP1 SWAP2 SUB SWAP1 RETURN JUMPDEST PUSH2 0x124 PUSH1 0x4 DUP1 CALLDATASIZE SUB DUP2 ADD SWAP1 PUSH2 0x11F SWAP2 SWAP1 PUSH2 0x58A JUMP JUMPDEST PUSH2 0x315 JUMP JUMPDEST PUSH1 0x40 MLOAD PUSH2 0x132 SWAP3 SWAP2 SWAP1 PUSH2 0x5B5 JUMP JUMPDEST PUSH1 0x40 MLOAD DUP1 SWAP2 SUB SWAP1 RETURN JUMPDEST PUSH1 0x1 DUP2 DUP2 SLOAD DUP2 LT PUSH2 0x14A JUMPI PUSH0 DUP1 REVERT JUMPDEST SWAP1 PUSH0 MSTORE PUSH1 0x20 PUSH0 KECCAK256 ADD PUSH0 SWAP2 POP SLOAD SWAP1 PUSH2 0x100 EXP SWAP1 DIV PUSH20 0xFFFFFFFFFFFFFFFFFFFFFFFFFFFFFFFFFFFFFFFF AND DUP2 JUMP JUMPDEST PUSH1 0x2 SLOAD DUP2 JUMP JUMPDEST DUP1 ISZERO PUSH2 0x1DA JUMPI PUSH0 DUP1 DUP4 PUSH20 0xFFFFFFFFFFFFFFFFFFFFFFFFFFFFFFFFFFFFFFFF AND PUSH20 0xFFFFFFFFFFFFFFFFFFFFFFFFFFFFFFFFFFFFFFFF AND DUP2 MSTORE PUSH1 0x20 ADD SWAP1 DUP2 MSTORE PUSH1 0x20 ADD PUSH0 KECCAK256 PUSH0 ADD PUSH0 DUP2 SLOAD DUP1 SWAP3 SWAP2 SWAP1 PUSH2 0x1D0 SWAP1 PUSH2 0x609 JUMP JUMPDEST SWAP2 SWAP1 POP SSTORE POP PUSH2 0x22F JUMP JUMPDEST PUSH0 DUP1 DUP4 PUSH20 0xFFFFFFFFFFFFFFFFFFFFFFFFFFFFFFFFFFFFFFFF AND PUSH20 0xFFFFFFFFFFFFFFFFFFFFFFFFFFFFFFFFFFFFFFFF AND DUP2 MSTORE PUSH1 0x20 ADD SWAP1 DUP2 MSTORE PUSH1 0x20 ADD PUSH0 KECCAK256 PUSH1 0x1 ADD PUSH0 DUP2 SLOAD DUP1 SWAP3 SWAP2 SWAP1 PUSH2 0x229 SWAP1 PUSH2 0x609 JUMP JUMPDEST SWAP2 SWAP1 POP SSTORE POP JUMPDEST DUP2 PUSH20 0xFFFFFFFFFFFFFFFFFFFFFFFFFFFFFFFFFFFFFFFF AND PUSH32 0xE288F3DA33E64DDEE3B364667453B358A49F4B13AF9B20EC1836A74AE92C9B2D DUP3 PUSH1 0x40 MLOAD PUSH2 0x275 SWAP2 SWAP1 PUSH2 0x65F JUMP JUMPDEST PUSH1 0x40 MLOAD DUP1 SWAP2 SUB SWAP1 LOG2 POP POP JUMP JUMPDEST PUSH1 0x60 PUSH1 0x1 DUP1 SLOAD DUP1 PUSH1 0x20 MUL PUSH1 0x20 ADD PUSH1 0x40 MLOAD SWAP1 DUP2 ADD PUSH1 0x40 MSTORE DUP1 SWAP3 SWAP2 SWAP1 DUP2 DUP2 MSTORE PUSH1 0x20 ADD DUP3 DUP1 SLOAD DUP1 ISZERO PUSH2 0x302 JUMPI PUSH1 0x20 MUL DUP3 ADD SWAP2 SWAP1 PUSH0 MSTORE PUSH1 0x20 PUSH0 KECCAK256 SWAP1 JUMPDEST DUP2 PUSH0 SWAP1 SLOAD SWAP1 PUSH2 0x100 EXP SWAP1 DIV PUSH20 0xFFFFFFFFFFFFFFFFFFFFFFFFFFFFFFFFFFFFFFFF AND PUSH20 0xFFFFFFFFFFFFFFFFFFFFFFFFFFFFFFFFFFFFFFFF AND DUP2 MSTORE PUSH1 0x20 ADD SWAP1 PUSH1 0x1 ADD SWAP1 DUP1 DUP4 GT PUSH2 0x2B9 JUMPI JUMPDEST POP POP POP POP POP SWAP1 POP SWAP1 JUMP JUMPDEST PUSH0 PUSH1 0x2 SLOAD SWAP1 POP SWAP1 JUMP JUMPDEST PUSH0 PUSH1 0x20 MSTORE DUP1 PUSH0 MSTORE PUSH1 0x40 PUSH0 KECCAK256 PUSH0 SWAP2 POP SWAP1 POP DUP1 PUSH0 ADD SLOAD SWAP1 DUP1 PUSH1 0x1 ADD SLOAD SWAP1 POP DUP3 JUMP JUMPDEST PUSH0 DUP1 REVERT JUMPDEST PUSH0 DUP2 SWAP1 POP SWAP2 SWAP1 POP JUMP JUMPDEST PUSH2 0x34A DUP2 PUSH2 0x338 JUMP JUMPDEST DUP2 EQ PUSH2 0x354 JUMPI PUSH0 DUP1 REVERT JUMPDEST POP JUMP JUMPDEST PUSH0 DUP2 CALLDATALOAD SWAP1 POP PUSH2 0x365 DUP2 PUSH2 0x341 JUMP JUMPDEST SWAP3 SWAP2 POP POP JUMP JUMPDEST PUSH0 PUSH1 0x20 DUP3 DUP5 SUB SLT ISZERO PUSH2 0x380 JUMPI PUSH2 0x37F PUSH2 0x334 JUMP JUMPDEST JUMPDEST PUSH0 PUSH2 0x38D DUP5 DUP3 DUP6 ADD PUSH2 0x357 JUMP JUMPDEST SWAP2 POP POP SWAP3 SWAP2 POP POP JUMP JUMPDEST PUSH0 PUSH20 0xFFFFFFFFFFFFFFFFFFFFFFFFFFFFFFFFFFFFFFFF DUP3 AND SWAP1 POP SWAP2 SWAP1 POP JUMP JUMPDEST PUSH0 PUSH2 0x3BF DUP3 PUSH2 0x396 JUMP JUMPDEST SWAP1 POP SWAP2 SWAP1 POP JUMP JUMPDEST PUSH2 0x3CF DUP2 PUSH2 0x3B5 JUMP JUMPDEST DUP3 MSTORE POP POP JUMP JUMPDEST PUSH0 PUSH1 0x20 DUP3 ADD SWAP1 POP PUSH2 0x3E8 PUSH0 DUP4 ADD DUP5 PUSH2 0x3C6 JUMP JUMPDEST SWAP3 SWAP2 POP POP JUMP JUMPDEST PUSH2 0x3F7 DUP2 PUSH2 0x338 JUMP JUMPDEST DUP3 MSTORE POP POP JUMP JUMPDEST PUSH0 PUSH1 0x20 DUP3 ADD SWAP1 POP PUSH2 0x410 PUSH0 DUP4 ADD DUP5 PUSH2 0x3EE JUMP JUMPDEST SWAP3 SWAP2 POP POP JUMP JUMPDEST PUSH2 0x41F DUP2 PUSH2 0x3B5 JUMP JUMPDEST DUP2 EQ PUSH2 0x429 JUMPI PUSH0 DUP1 REVERT JUMPDEST POP JUMP JUMPDEST PUSH0 DUP2 CALLDATALOAD SWAP1 POP PUSH2 0x43A DUP2 PUSH2 0x416 JUMP JUMPDEST SWAP3 SWAP2 POP POP JUMP JUMPDEST PUSH0 DUP2 ISZERO ISZERO SWAP1 POP SWAP2 SWAP1 POP JUMP JUMPDEST PUSH2 0x454 DUP2 PUSH2 0x440 JUMP JUMPDEST DUP2 EQ PUSH2 0x45E JUMPI PUSH0 DUP1 REVERT JUMPDEST POP JUMP JUMPDEST PUSH0 DUP2 CALLDATALOAD SWAP1 POP PUSH2 0x46F DUP2 PUSH2 0x44B JUMP JUMPDEST SWAP3 SWAP2 POP POP JUMP JUMPDEST PUSH0 DUP1 PUSH1 0x40 DUP4 DUP6 SUB SLT ISZERO PUSH2 0x48B JUMPI PUSH2 0x48A PUSH2 0x334 JUMP JUMPDEST JUMPDEST PUSH0 PUSH2 0x498 DUP6 DUP3 DUP7 ADD PUSH2 0x42C JUMP JUMPDEST SWAP3 POP POP PUSH1 0x20 PUSH2 0x4A9 DUP6 DUP3 DUP7 ADD PUSH2 0x461 JUMP JUMPDEST SWAP2 POP POP SWAP3 POP SWAP3 SWAP1 POP JUMP JUMPDEST PUSH0 DUP2 MLOAD SWAP1 POP SWAP2 SWAP1 POP JUMP JUMPDEST PUSH0 DUP3 DUP3 MSTORE PUSH1 0x20 DUP3 ADD SWAP1 POP SWAP3 SWAP2 POP POP JUMP JUMPDEST PUSH0 DUP2 SWAP1 POP PUSH1 0x20 DUP3 ADD SWAP1 POP SWAP2 SWAP1 POP JUMP JUMPDEST PUSH2 0x4E5 DUP2 PUSH2 0x3B5 JUMP JUMPDEST DUP3 MSTORE POP POP JUMP JUMPDEST PUSH0 PUSH2 0x4F6 DUP4 DUP4 PUSH2 0x4DC JUMP JUMPDEST PUSH1 0x20 DUP4 ADD SWAP1 POP SWAP3 SWAP2 POP POP JUMP JUMPDEST PUSH0 PUSH1 0x20 DUP3 ADD SWAP1 POP SWAP2 SWAP1 POP JUMP JUMPDEST PUSH0 PUSH2 0x518 DUP3 PUSH2 0x4B3 JUMP JUMPDEST PUSH2 0x522 DUP2 DUP6 PUSH2 0x4BD JUMP JUMPDEST SWAP4 POP PUSH2 0x52D DUP4 PUSH2 0x4CD JUMP JUMPDEST DUP1 PUSH0 JUMPDEST DUP4 DUP2 LT ISZERO PUSH2 0x55D JUMPI DUP2 MLOAD PUSH2 0x544 DUP9 DUP3 PUSH2 0x4EB JUMP JUMPDEST SWAP8 POP PUSH2 0x54F DUP4 PUSH2 0x502 JUMP JUMPDEST SWAP3 POP POP PUSH1 0x1 DUP2 ADD SWAP1 POP PUSH2 0x530 JUMP JUMPDEST POP DUP6 SWAP4 POP POP POP POP SWAP3 SWAP2 POP POP JUMP JUMPDEST PUSH0 PUSH1 0x20 DUP3 ADD SWAP1 POP DUP2 DUP2 SUB PUSH0 DUP4 ADD MSTORE PUSH2 0x582 DUP2 DUP5 PUSH2 0x50E JUMP JUMPDEST SWAP1 POP SWAP3 SWAP2 POP POP JUMP JUMPDEST PUSH0 PUSH1 0x20 DUP3 DUP5 SUB SLT ISZERO PUSH2 0x59F JUMPI PUSH2 0x59E PUSH2 0x334 JUMP JUMPDEST JUMPDEST PUSH0 PUSH2 0x5AC DUP5 DUP3 DUP6 ADD PUSH2 0x42C JUMP JUMPDEST SWAP2 POP POP SWAP3 SWAP2 POP POP JUMP JUMPDEST PUSH0 PUSH1 0x40 DUP3 ADD SWAP1 POP PUSH2 0x5C8 PUSH0 DUP4 ADD DUP6 PUSH2 0x3EE JUMP JUMPDEST PUSH2 0x5D5 PUSH1 0x20 DUP4 ADD DUP5 PUSH2 0x3EE JUMP JUMPDEST SWAP4 SWAP3 POP POP POP JUMP JUMPDEST PUSH32 0x4E487B7100000000000000000000000000000000000000000000000000000000 PUSH0 MSTORE PUSH1 0x11 PUSH1 0x4 MSTORE PUSH1 0x24 PUSH0 REVERT JUMPDEST PUSH0 PUSH2 0x613 DUP3 PUSH2 0x338 JUMP JUMPDEST SWAP2 POP PUSH32 0xFFFFFFFFFFFFFFFFFFFFFFFFFFFFFFFFFFFFFFFFFFFFFFFFFFFFFFFFFFFFFFFF DUP3 SUB PUSH2 0x645 JUMPI PUSH2 0x644 PUSH2 0x5DC JUMP JUMPDEST JUMPDEST PUSH1 0x1 DUP3 ADD SWAP1 POP SWAP2 SWAP1 POP JUMP JUMPDEST PUSH2 0x659 DUP2 PUSH2 0x440 JUMP JUMPDEST DUP3 MSTORE POP POP JUMP JUMPDEST PUSH0 PUSH1 0x20 DUP3 ADD SWAP1 POP PUSH2 0x672 PUSH0 DUP4 ADD DUP5 PUSH2 0x650 JUMP JUMPDEST SWAP3 SWAP2 POP POP JUMP INVALID LOG2 PUSH5 0x6970667358 0x22 SLT KECCAK256 SWAP5 GASLIMIT CALLDATALOAD 0xFB 0xEE 0x27 PUSH22 0x5737181F61B74C58268B4B520C8F74B7FFBE83F128AF PUSH15 0xB33A64736F6C634300081900330000 "
				},
				"gasEstimates": {
					"creation": {
						"codeDepositCost": "342000",
						"executionCost": "378",
						"totalCost": "342378"
					},
					"external": {
						"getPlayerCount()": "2498",
						"getPlayers()": "infinite",
						"playerAddresses(uint256)": "4922",
						"playerCount()": "2425",
						"players(address)": "infinite",
						"recordMatchResult(address,bool)": "infinite"
					},
					"internal": {
						"registerPlayer(address)": "infinite"
					}
				},
				"methodIdentifiers": {
					"getPlayerCount()": "c2e52206",
					"getPlayers()": "8b5b9ccc",
					"playerAddresses(uint256)": "15c6aee2",
					"playerCount()": "302bcc57",
					"players(address)": "e2eb41ff",
					"recordMatchResult(address,bool)": "3b79661a"
				}
			},
			"storageLayout": {
				"storage": [
					{
						"astId": 11,
						"contract": "blockchainstuff/Leaderboard.sol:Leaderboard",
						"label": "players",
						"offset": 0,
						"slot": "0",
						"type": "t_mapping(t_address,t_struct(Player)6_storage)"
					},
					{
						"astId": 14,
						"contract": "blockchainstuff/Leaderboard.sol:Leaderboard",
						"label": "playerAddresses",
						"offset": 0,
						"slot": "1",
						"type": "t_array(t_address)dyn_storage"
					},
					{
						"astId": 16,
						"contract": "blockchainstuff/Leaderboard.sol:Leaderboard",
						"label": "playerCount",
						"offset": 0,
						"slot": "2",
						"type": "t_uint256"
					}
				],
				"types": {
					"t_address": {
						"encoding": "inplace",
						"label": "address",
						"numberOfBytes": "20"
					},
					"t_array(t_address)dyn_storage": {
						"base": "t_address",
						"encoding": "dynamic_array",
						"label": "address[]",
						"numberOfBytes": "32"
					},
					"t_mapping(t_address,t_struct(Player)6_storage)": {
						"encoding": "mapping",
						"key": "t_address",
						"label": "mapping(address => struct Leaderboard.Player)",
						"numberOfBytes": "32",
						"value": "t_struct(Player)6_storage"
					},
					"t_struct(Player)6_storage": {
						"encoding": "inplace",
						"label": "struct Leaderboard.Player",
						"members": [
							{
								"astId": 3,
								"contract": "blockchainstuff/Leaderboard.sol:Leaderboard",
								"label": "wins",
								"offset": 0,
								"slot": "0",
								"type": "t_uint256"
							},
							{
								"astId": 5,
								"contract": "blockchainstuff/Leaderboard.sol:Leaderboard",
								"label": "losses",
								"offset": 0,
								"slot": "1",
								"type": "t_uint256"
							}
						],
						"numberOfBytes": "64"
					},
					"t_uint256": {
						"encoding": "inplace",
						"label": "uint256",
						"numberOfBytes": "32"
					}
				}
			},
			"userdoc": {
				"kind": "user",
				"methods": {},
				"version": 1
			}
		}
	}
}